{
  "contractName": "ProjectDonationContract",
  "abi": [
    {
      "inputs": [],
      "stateMutability": "nonpayable",
      "type": "constructor"
    },
    {
      "inputs": [
        {
          "internalType": "uint256",
          "name": "",
          "type": "uint256"
        },
        {
          "internalType": "uint256",
          "name": "",
          "type": "uint256"
        }
      ],
      "name": "projectDonations",
      "outputs": [
        {
          "internalType": "address",
          "name": "donor",
          "type": "address"
        },
        {
          "internalType": "uint256",
          "name": "amount",
          "type": "uint256"
        }
      ],
      "stateMutability": "view",
      "type": "function",
      "constant": true
    },
    {
      "inputs": [],
      "name": "projectIdCounter",
      "outputs": [
        {
          "internalType": "uint256",
          "name": "",
          "type": "uint256"
        }
      ],
      "stateMutability": "view",
      "type": "function",
      "constant": true
    },
    {
      "inputs": [
        {
          "internalType": "uint256",
          "name": "",
          "type": "uint256"
        }
      ],
      "name": "projects",
      "outputs": [
        {
          "internalType": "uint256",
          "name": "id",
          "type": "uint256"
        },
        {
          "internalType": "string",
          "name": "title",
          "type": "string"
        },
        {
          "internalType": "string",
          "name": "description",
          "type": "string"
        },
        {
          "internalType": "address payable",
          "name": "owner",
          "type": "address"
        }
      ],
      "stateMutability": "view",
      "type": "function",
      "constant": true
    },
    {
      "inputs": [
        {
          "internalType": "string",
          "name": "_title",
          "type": "string"
        },
        {
          "internalType": "string",
          "name": "_description",
          "type": "string"
        }
      ],
      "name": "createProject",
      "outputs": [],
      "stateMutability": "nonpayable",
      "type": "function"
    },
    {
      "inputs": [
        {
          "internalType": "uint256",
          "name": "_projectId",
          "type": "uint256"
        }
      ],
      "name": "donateToProject",
      "outputs": [],
      "stateMutability": "payable",
      "type": "function",
      "payable": true
    },
    {
      "inputs": [
        {
          "internalType": "uint256",
          "name": "_projectId",
          "type": "uint256"
        }
      ],
      "name": "getDonorList",
      "outputs": [
        {
          "components": [
            {
              "internalType": "address",
              "name": "donor",
              "type": "address"
            },
            {
              "internalType": "uint256",
              "name": "amount",
              "type": "uint256"
            }
          ],
          "internalType": "struct ProjectDonationContract.Donation[]",
          "name": "",
          "type": "tuple[]"
        }
      ],
      "stateMutability": "view",
      "type": "function",
      "constant": true
    }
  ],
  "bytecode": "0x608060405234801561001057600080fd5b506001600081905550610ec2806100286000396000f3fe6080604052600436106100555760003560e01c8063107046bd1461005a5780634a1d5bd81461009a57806356adb06f146100d75780636bd06204146100f3578063c56f3cac1461011c578063d5977b5e1461015a575b600080fd5b34801561006657600080fd5b50610081600480360381019061007c91906107dc565b610185565b60405161009194939291906108f2565b60405180910390f35b3480156100a657600080fd5b506100c160048036038101906100bc91906107dc565b6102e5565b6040516100ce9190610a53565b60405180910390f35b6100f160048036038101906100ec91906107dc565b6103b7565b005b3480156100ff57600080fd5b5061011a60048036038101906101159190610baa565b610592565b005b34801561012857600080fd5b50610143600480360381019061013e9190610c22565b610688565b604051610151929190610c71565b60405180910390f35b34801561016657600080fd5b5061016f6106e9565b60405161017c9190610c9a565b60405180910390f35b60016020528060005260406000206000915090508060000154908060010180546101ae90610ce4565b80601f01602080910402602001604051908101604052809291908181526020018280546101da90610ce4565b80156102275780601f106101fc57610100808354040283529160200191610227565b820191906000526020600020905b81548152906001019060200180831161020a57829003601f168201915b50505050509080600201805461023c90610ce4565b80601f016020809104026020016040519081016040528092919081815260200182805461026890610ce4565b80156102b55780601f1061028a576101008083540402835291602001916102b5565b820191906000526020600020905b81548152906001019060200180831161029857829003601f168201915b5050505050908060030160009054906101000a900473ffffffffffffffffffffffffffffffffffffffff16905084565b606060026000838152602001908152602001600020805480602002602001604051908101604052809291908181526020016000905b828210156103ac57838290600052602060002090600202016040518060400160405290816000820160009054906101000a900473ffffffffffffffffffffffffffffffffffffffff1673ffffffffffffffffffffffffffffffffffffffff1673ffffffffffffffffffffffffffffffffffffffff1681526020016001820154815250508152602001906001019061031a565b505050509050919050565b6000600160008381526020019081526020016000209050600081600001541415610416576040517f08c379a000000000000000000000000000000000000000000000000000000000815260040161040d90610d62565b60405180910390fd5b60006002600084815260200190815260200160002090506000818054905014610474576040517f08c379a000000000000000000000000000000000000000000000000000000000815260040161046b90610df4565b60405180910390fd5b60003490508160405180604001604052803373ffffffffffffffffffffffffffffffffffffffff16815260200183815250908060018154018082558091505060019003906000526020600020906002020160009091909190915060008201518160000160006101000a81548173ffffffffffffffffffffffffffffffffffffffff021916908373ffffffffffffffffffffffffffffffffffffffff1602179055506020820151816001015550508260030160009054906101000a900473ffffffffffffffffffffffffffffffffffffffff1673ffffffffffffffffffffffffffffffffffffffff166108fc829081150290604051600060405180830381858888f1935050505015801561058b573d6000803e3d6000fd5b5050505050565b604051806080016040528060005481526020018381526020018281526020013373ffffffffffffffffffffffffffffffffffffffff1681525060016000805481526020019081526020016000206000820151816000015560208201518160010190805190602001906106059291906106ef565b5060408201518160020190805190602001906106229291906106ef565b5060608201518160030160006101000a81548173ffffffffffffffffffffffffffffffffffffffff021916908373ffffffffffffffffffffffffffffffffffffffff16021790555090505060008081548092919061067f90610e43565b91905055505050565b600260205281600052604060002081815481106106a457600080fd5b9060005260206000209060020201600091509150508060000160009054906101000a900473ffffffffffffffffffffffffffffffffffffffff16908060010154905082565b60005481565b8280546106fb90610ce4565b90600052602060002090601f01602090048101928261071d5760008555610764565b82601f1061073657805160ff1916838001178555610764565b82800160010185558215610764579182015b82811115610763578251825591602001919060010190610748565b5b5090506107719190610775565b5090565b5b8082111561078e576000816000905550600101610776565b5090565b6000604051905090565b600080fd5b600080fd5b6000819050919050565b6107b9816107a6565b81146107c457600080fd5b50565b6000813590506107d6816107b0565b92915050565b6000602082840312156107f2576107f161079c565b5b6000610800848285016107c7565b91505092915050565b610812816107a6565b82525050565b600081519050919050565b600082825260208201905092915050565b60005b83811015610852578082015181840152602081019050610837565b83811115610861576000848401525b50505050565b6000601f19601f8301169050919050565b600061088382610818565b61088d8185610823565b935061089d818560208601610834565b6108a681610867565b840191505092915050565b600073ffffffffffffffffffffffffffffffffffffffff82169050919050565b60006108dc826108b1565b9050919050565b6108ec816108d1565b82525050565b60006080820190506109076000830187610809565b81810360208301526109198186610878565b9050818103604083015261092d8185610878565b905061093c60608301846108e3565b95945050505050565b600081519050919050565b600082825260208201905092915050565b6000819050602082019050919050565b600061097c826108b1565b9050919050565b61098c81610971565b82525050565b61099b816107a6565b82525050565b6040820160008201516109b76000850182610983565b5060208201516109ca6020850182610992565b50505050565b60006109dc83836109a1565b60408301905092915050565b6000602082019050919050565b6000610a0082610945565b610a0a8185610950565b9350610a1583610961565b8060005b83811015610a46578151610a2d88826109d0565b9750610a38836109e8565b925050600181019050610a19565b5085935050505092915050565b60006020820190508181036000830152610a6d81846109f5565b905092915050565b600080fd5b600080fd5b7f4e487b7100000000000000000000000000000000000000000000000000000000600052604160045260246000fd5b610ab782610867565b810181811067ffffffffffffffff82111715610ad657610ad5610a7f565b5b80604052505050565b6000610ae9610792565b9050610af58282610aae565b919050565b600067ffffffffffffffff821115610b1557610b14610a7f565b5b610b1e82610867565b9050602081019050919050565b82818337600083830152505050565b6000610b4d610b4884610afa565b610adf565b905082815260208101848484011115610b6957610b68610a7a565b5b610b74848285610b2b565b509392505050565b600082601f830112610b9157610b90610a75565b5b8135610ba1848260208601610b3a565b91505092915050565b60008060408385031215610bc157610bc061079c565b5b600083013567ffffffffffffffff811115610bdf57610bde6107a1565b5b610beb85828601610b7c565b925050602083013567ffffffffffffffff811115610c0c57610c0b6107a1565b5b610c1885828601610b7c565b9150509250929050565b60008060408385031215610c3957610c3861079c565b5b6000610c47858286016107c7565b9250506020610c58858286016107c7565b9150509250929050565b610c6b81610971565b82525050565b6000604082019050610c866000830185610c62565b610c936020830184610809565b9392505050565b6000602082019050610caf6000830184610809565b92915050565b7f4e487b7100000000000000000000000000000000000000000000000000000000600052602260045260246000fd5b60006002820490506001821680610cfc57607f821691505b60208210811415610d1057610d0f610cb5565b5b50919050565b7f496e76616c69642070726f6a6563742049440000000000000000000000000000600082015250565b6000610d4c601283610823565b9150610d5782610d16565b602082019050919050565b60006020820190508181036000830152610d7b81610d3f565b9050919050565b7f446f6e6174696f6e20616c7265616479206d61646520746f207468697320707260008201527f6f6a656374000000000000000000000000000000000000000000000000000000602082015250565b6000610dde602583610823565b9150610de982610d82565b604082019050919050565b60006020820190508181036000830152610e0d81610dd1565b9050919050565b7f4e487b7100000000000000000000000000000000000000000000000000000000600052601160045260246000fd5b6000610e4e826107a6565b91507fffffffffffffffffffffffffffffffffffffffffffffffffffffffffffffffff821415610e8157610e80610e14565b5b60018201905091905056fea26469706673582212209f02efb2df62167bc8a2d4fe8bd3098ea0238d71bb782837db33a6a1a167904164736f6c63430008080033",
  "immutableReferences": {},
  "source": "// SPDX-License-Identifier: MIT\r\npragma solidity ^0.8.8;\r\n\r\ncontract ProjectDonationContract {\r\n    struct Project {\r\n        uint256 id;\r\n        string title;\r\n        string description;\r\n        address payable owner; \r\n    }\r\n\r\n    struct Donation {\r\n        address donor;\r\n        uint256 amount;\r\n    }\r\n\r\n    uint256 public projectIdCounter;\r\n    mapping(uint256 => Project) public projects;\r\n    mapping(uint256 => Donation[]) public projectDonations;\r\n\r\n    constructor() {\r\n        projectIdCounter = 1;\r\n    }\r\n\r\n    function createProject(string memory _title, string memory _description) public {\r\n        projects[projectIdCounter] = Project({\r\n            id: projectIdCounter,\r\n            title: _title,\r\n            description: _description,\r\n            owner: payable(msg.sender)\r\n        });\r\n        projectIdCounter++;\r\n    }\r\n\r\n    function donateToProject(uint256 _projectId) public payable {\r\n        Project storage project = projects[_projectId];\r\n        require(project.id != 0, \"Invalid project ID\");\r\n\r\n        Donation[] storage donations = projectDonations[_projectId];\r\n        require(donations.length == 0, \"Donation already made to this project\");\r\n\r\n        uint256 donationAmount = msg.value;\r\n        donations.push(Donation({\r\n            donor: msg.sender,\r\n            amount: donationAmount\r\n        }));\r\n\r\n        project.owner.transfer(donationAmount);\r\n    }\r\n\r\n    function getDonorList(uint256 _projectId) public view returns (Donation[] memory) {\r\n        return projectDonations[_projectId];\r\n    }\r\n}\r\n",
  "sourcePath": "C:\\Users\\youssef\\Desktop\\s8\\bloockchain\\exam\\contracts\\ProjectDonationContract.sol",
  "compiler": {
    "name": "solc",
    "version": "0.8.8+commit.dddeac2f.Emscripten.clang"
  },
  "schemaVersion": "3.4.14",
  "updatedAt": "2023-06-12T16:38:57.065Z",
  "networkType": "ethereum",
  "devdoc": {
    "kind": "dev",
    "methods": {},
    "version": 1
  },
  "userdoc": {
    "kind": "user",
    "methods": {},
    "version": 1
  }
}